:1000000019C033C032C031C030C02FC02EC02DC087
:100010002CC02BC02AC029C028C027C026C025C09C
:1000200024C023C022C021C020C01FC01EC01DC0CC
:100030001CC01BC011241FBECFEFD2E0DEBFCDBF5E
:1000400011E0A0E0B1E0EAE2F2E002C005900D921A
:10005000A030B107D9F721E0A0E0B1E001C01D92C6
:10006000A630B207E1F738D0DEC0CACF93EA94BD1C
:1000700085B5816085BD16BC17BC18BCEEE6F0E006
:100080008081808389EA80938000E1E8F0E08081CC
:100090008160808310928500109284001092890004
:1000A0001092880010928B0010928A00EFE6F0E028
:1000B000808180839093B000E1EBF0E080818160EB
:1000C00080831092B2001092B3001092B400E0E767
:1000D000F0E0808180830895C9DF8AB188668AB99B
:1000E00084B18E6084B98BB187798BB985B1817FFA
:1000F00085B980E0F9E2E9E17DEC61EF51E149E3A6
:100100008F9F912D112496959695282F9E9F2019AB
:100110001124922F21110BC0209105012F5F28304F
:1001200008F070C020930501922F9093B400879F30
:10013000912D112492959F70A82F34E1939FA019BF
:1001400011249A2FA1110AC0209104012F5F2A3097
:1001500008F05BC0209304012093B300869F212DFB
:10016000112422952F70B82F259FB0191124B11199
:100170000DC0209103012F5F243108F04AC0209365
:10018000030130E030938B0020938A00849F212D5F
:1001900011242695322F330F330F330F230F821381
:1001A0000CC0209102012F5F2E31C0F52093020177
:1001B00030E03093890020938800282F237049F481
:1001C000309101013F5F3832D0F430930101232F89
:1001D00028BD911109C0209100012F5F223360F4E6
:1001E00020930001922F97BD8F5FA9EFB0E0119788
:1001F000F1F700C0000084CF10920001F4CF1092FC
:100200000101E6CF1092050190CF1092040120E089
:10021000A3CF1092030120E030E0B4CF109202018E
:0A02200020E030E0C6CFF894FFCFD5
:00000001FF
